{
  "contractName": "AccessRestriction",
  "abi": [
    {
      "inputs": [],
      "stateMutability": "nonpayable",
      "type": "constructor"
    },
    {
      "anonymous": false,
      "inputs": [
        {
          "indexed": false,
          "internalType": "uint256",
          "name": "_gas",
          "type": "uint256"
        }
      ],
      "name": "gasUsage",
      "type": "event"
    },
    {
      "anonymous": false,
      "inputs": [
        {
          "indexed": false,
          "internalType": "address",
          "name": "_owner",
          "type": "address"
        },
        {
          "indexed": false,
          "internalType": "address",
          "name": "buyer",
          "type": "address"
        },
        {
          "indexed": false,
          "internalType": "uint256",
          "name": "_timestamp",
          "type": "uint256"
        }
      ],
      "name": "ownerChange",
      "type": "event"
    },
    {
      "inputs": [],
      "name": "getName",
      "outputs": [
        {
          "internalType": "string",
          "name": "",
          "type": "string"
        }
      ],
      "stateMutability": "view",
      "type": "function",
      "constant": true
    },
    {
      "inputs": [],
      "name": "disown",
      "outputs": [],
      "stateMutability": "nonpayable",
      "type": "function"
    },
    {
      "inputs": [
        {
          "internalType": "address",
          "name": "_owner",
          "type": "address"
        }
      ],
      "name": "changeOwner",
      "outputs": [],
      "stateMutability": "nonpayable",
      "type": "function"
    },
    {
      "inputs": [
        {
          "internalType": "address",
          "name": "_owner",
          "type": "address"
        }
      ],
      "name": "forceOwnerChange",
      "outputs": [],
      "stateMutability": "payable",
      "type": "function",
      "payable": true
    }
  ],
  "bytecode": "0x60806040523480156200001157600080fd5b50336000806101000a81548173ffffffffffffffffffffffffffffffffffffffff021916908373ffffffffffffffffffffffffffffffffffffffff160217905550426001819055506040518060400160405280601281526020017f416363657373205265737472696374696f6e0000000000000000000000000000815250600290816200009f919062000320565b5062000407565b600081519050919050565b7f4e487b7100000000000000000000000000000000000000000000000000000000600052604160045260246000fd5b7f4e487b7100000000000000000000000000000000000000000000000000000000600052602260045260246000fd5b600060028204905060018216806200012857607f821691505b6020821081036200013e576200013d620000e0565b5b50919050565b60008190508160005260206000209050919050565b60006020601f8301049050919050565b600082821b905092915050565b600060088302620001a87fffffffffffffffffffffffffffffffffffffffffffffffffffffffffffffffff8262000169565b620001b4868362000169565b95508019841693508086168417925050509392505050565b6000819050919050565b6000819050919050565b600062000201620001fb620001f584620001cc565b620001d6565b620001cc565b9050919050565b6000819050919050565b6200021d83620001e0565b620002356200022c8262000208565b84845462000176565b825550505050565b600090565b6200024c6200023d565b6200025981848462000212565b505050565b5b8181101562000281576200027560008262000242565b6001810190506200025f565b5050565b601f821115620002d0576200029a8162000144565b620002a58462000159565b81016020851015620002b5578190505b620002cd620002c48562000159565b8301826200025e565b50505b505050565b600082821c905092915050565b6000620002f560001984600802620002d5565b1980831691505092915050565b6000620003108383620002e2565b9150826002028217905092915050565b6200032b82620000a6565b67ffffffffffffffff811115620003475762000346620000b1565b5b6200035382546200010f565b6200036082828562000285565b600060209050601f83116001811462000398576000841562000383578287015190505b6200038f858262000302565b865550620003ff565b601f198416620003a88662000144565b60005b82811015620003d257848901518255600182019150602085019450602081019050620003ab565b86831015620003f25784890151620003ee601f891682620002e2565b8355505b6001600288020188555050505b505050505050565b6108fa80620004176000396000f3fe60806040526004361061003f5760003560e01c80630cb0c7f01461004457806317d7de7c146100605780631e9bf0da1461008b578063a6f9dae1146100a2575b600080fd5b61005e60048036038101906100599190610530565b6100cb565b005b34801561006c57600080fd5b506100756101fb565b60405161008291906105ed565b60405180910390f35b34801561009757600080fd5b506100a061028d565b005b3480156100ae57600080fd5b506100c960048036038101906100c49190610530565b610398565b005b64174876e80034811115610114576040517f08c379a000000000000000000000000000000000000000000000000000000000815260040161010b9061065b565b60405180910390fd5b816000806101000a81548173ffffffffffffffffffffffffffffffffffffffff021916908373ffffffffffffffffffffffffffffffffffffffff160217905550803411156101f75760005a90503373ffffffffffffffffffffffffffffffffffffffff166108fc833461018791906106b4565b9081150290604051600060405180830381858888f193505050501580156101b2573d6000803e3d6000fd5b507f36d6825a0e2ae2e4a8bbb9646fc154997ee8cc967fe6a72c1526cf5dfae1a7f4815a6101e091906106b4565b6040516101ed91906106f7565b60405180910390a1505b5050565b60606002805461020a90610741565b80601f016020809104026020016040519081016040528092919081815260200182805461023690610741565b80156102835780601f1061025857610100808354040283529160200191610283565b820191906000526020600020905b81548152906001019060200180831161026657829003601f168201915b5050505050905090565b60008054906101000a900473ffffffffffffffffffffffffffffffffffffffff168073ffffffffffffffffffffffffffffffffffffffff163373ffffffffffffffffffffffffffffffffffffffff161461031c576040517f08c379a0000000000000000000000000000000000000000000000000000000008152600401610313906107be565b60405180910390fd5b6224ea0060015461032d91906107de565b80421015610370576040517f08c379a00000000000000000000000000000000000000000000000000000000081526004016103679061085e565b60405180910390fd5b6000806101000a81549073ffffffffffffffffffffffffffffffffffffffff02191690555050565b60008054906101000a900473ffffffffffffffffffffffffffffffffffffffff168073ffffffffffffffffffffffffffffffffffffffff163373ffffffffffffffffffffffffffffffffffffffff1614610427576040517f08c379a000000000000000000000000000000000000000000000000000000000815260040161041e906107be565b60405180910390fd5b426001819055507f0231b39b37ee42ffac823601e7c495245658fcbb73c885963f7f5ac62f9e805260008054906101000a900473ffffffffffffffffffffffffffffffffffffffff1683426040516104819392919061088d565b60405180910390a1816000806101000a81548173ffffffffffffffffffffffffffffffffffffffff021916908373ffffffffffffffffffffffffffffffffffffffff1602179055505050565b600080fd5b600073ffffffffffffffffffffffffffffffffffffffff82169050919050565b60006104fd826104d2565b9050919050565b61050d816104f2565b811461051857600080fd5b50565b60008135905061052a81610504565b92915050565b600060208284031215610546576105456104cd565b5b60006105548482850161051b565b91505092915050565b600081519050919050565b600082825260208201905092915050565b60005b8381101561059757808201518184015260208101905061057c565b60008484015250505050565b6000601f19601f8301169050919050565b60006105bf8261055d565b6105c98185610568565b93506105d9818560208601610579565b6105e2816105a3565b840191505092915050565b6000602082019050818103600083015261060781846105b4565b905092915050565b7f496e73756666696369656e742062616c616e6365210000000000000000000000600082015250565b6000610645601583610568565b91506106508261060f565b602082019050919050565b6000602082019050818103600083015261067481610638565b9050919050565b6000819050919050565b7f4e487b7100000000000000000000000000000000000000000000000000000000600052601160045260246000fd5b60006106bf8261067b565b91506106ca8361067b565b92508282039050818111156106e2576106e1610685565b5b92915050565b6106f18161067b565b82525050565b600060208201905061070c60008301846106e8565b92915050565b7f4e487b7100000000000000000000000000000000000000000000000000000000600052602260045260246000fd5b6000600282049050600182168061075957607f821691505b60208210810361076c5761076b610712565b5b50919050565b7f556e617574686f72697a65642061636365737321000000000000000000000000600082015250565b60006107a8601483610568565b91506107b382610772565b602082019050919050565b600060208201905081810360008301526107d78161079b565b9050919050565b60006107e98261067b565b91506107f48361067b565b925082820190508082111561080c5761080b610685565b5b92915050565b7f43616e6e6f74206469736f776e20636f6e747261637420796574210000000000600082015250565b6000610848601b83610568565b915061085382610812565b602082019050919050565b600060208201905081810360008301526108778161083b565b9050919050565b610887816104f2565b82525050565b60006060820190506108a2600083018661087e565b6108af602083018561087e565b6108bc60408301846106e8565b94935050505056fea264697066735822122057b9f1c32bce5c90b420b63f56245403916195b9d918ef79b0ee707eed95b6a764736f6c63430008110033",
  "immutableReferences": {},
  "source": "// SPDX-License-Identifier: MIT\npragma solidity >=0.4.22 <0.9.0;\n\ncontract AccessRestriction {\n\n  // declare state variables\n  address owner;\n  uint timestamp;\n  string name;\n\n  // define custom events\n  event ownerChange(address _owner, address buyer, uint _timestamp);\n  event gasUsage(uint _gas);\n\n  // constructor \n  constructor() {\n    owner = msg.sender;\n    timestamp = block.timestamp;\n    name = \"Access Restriction\";\n  }\n\n  // implement getter for instance name test\n  function getName() public view returns(string memory) {\n    return (name);\n  }\n\n  // implement access restriction to change the owner\n  modifier onlyOwner(address account) {\n    require(msg.sender == account, \"Unauthorized access!\");\n    // execute rest\n    _;\n  }\n\n  // implement requirement to purchase\n  modifier contractCost(uint cost) {\n    require(cost <= msg.value, \"Insufficient balance!\");\n    _;\n    if(msg.value > cost) {\n      uint current_gas = gasleft();\n      payable(msg.sender).transfer(msg.value - cost);\n      // demonstrate 2300 gas unit decrease in a `transfer` call\n      emit gasUsage(gasleft() - current_gas);\n    }\n  }\n\n  // implement requirement to disown the contract\n  modifier onlyAfter(uint _time) {\n    require(block.timestamp >= _time, \"Cannot disown contract yet!\");\n    _;\n  }\n\n  // disown the contract\n  function disown() public onlyOwner(owner) onlyAfter(timestamp + 4 weeks) {\n    delete owner;\n  }\n\n  // change the owner\n  function changeOwner(address _owner) public onlyOwner(owner) {\n    timestamp = block.timestamp;\n    emit ownerChange(owner, _owner, block.timestamp);\n    owner = _owner;\n  }\n\n  // use `external` in case function is not called by the contract itself\n  // due to gas efficiency\n  function forceOwnerChange(address _owner) public payable contractCost(100 gwei) {\n    owner = _owner;\n  }\n}\n",
  "sourcePath": "C:\\Users\\duplid\\Documents\\ethereum-design-patterns\\contracts\\AccessRestriction.sol",
  "compiler": {
    "name": "solc",
    "version": "0.8.17+commit.8df45f5f.Emscripten.clang"
  },
  "schemaVersion": "3.4.10",
  "updatedAt": "2023-01-05T14:45:51.188Z",
  "networkType": "ethereum",
  "devdoc": {
    "kind": "dev",
    "methods": {},
    "version": 1
  },
  "userdoc": {
    "kind": "user",
    "methods": {},
    "version": 1
  }
}