{
  "contractName": "EmergencyStop",
  "abi": [
    {
      "inputs": [],
      "stateMutability": "nonpayable",
      "type": "constructor"
    },
    {
      "inputs": [],
      "name": "getName",
      "outputs": [
        {
          "internalType": "string",
          "name": "",
          "type": "string"
        }
      ],
      "stateMutability": "view",
      "type": "function",
      "constant": true
    },
    {
      "inputs": [],
      "name": "pause",
      "outputs": [],
      "stateMutability": "nonpayable",
      "type": "function"
    },
    {
      "inputs": [],
      "name": "resume",
      "outputs": [],
      "stateMutability": "nonpayable",
      "type": "function"
    },
    {
      "inputs": [],
      "name": "deposit",
      "outputs": [],
      "stateMutability": "payable",
      "type": "function",
      "payable": true
    },
    {
      "inputs": [],
      "name": "withdraw",
      "outputs": [],
      "stateMutability": "payable",
      "type": "function",
      "payable": true
    }
  ],
  "bytecode": "0x60806040523480156200001157600080fd5b50336000806101000a81548173ffffffffffffffffffffffffffffffffffffffff021916908373ffffffffffffffffffffffffffffffffffffffff1602179055506001600060146101000a81548160ff0219169083151502179055506040518060400160405280600e81526020017f456d657267656e63792053746f7000000000000000000000000000000000000081525060019081620000b3919062000334565b506200041b565b600081519050919050565b7f4e487b7100000000000000000000000000000000000000000000000000000000600052604160045260246000fd5b7f4e487b7100000000000000000000000000000000000000000000000000000000600052602260045260246000fd5b600060028204905060018216806200013c57607f821691505b602082108103620001525762000151620000f4565b5b50919050565b60008190508160005260206000209050919050565b60006020601f8301049050919050565b600082821b905092915050565b600060088302620001bc7fffffffffffffffffffffffffffffffffffffffffffffffffffffffffffffffff826200017d565b620001c886836200017d565b95508019841693508086168417925050509392505050565b6000819050919050565b6000819050919050565b6000620002156200020f6200020984620001e0565b620001ea565b620001e0565b9050919050565b6000819050919050565b6200023183620001f4565b6200024962000240826200021c565b8484546200018a565b825550505050565b600090565b6200026062000251565b6200026d81848462000226565b505050565b5b8181101562000295576200028960008262000256565b60018101905062000273565b5050565b601f821115620002e457620002ae8162000158565b620002b9846200016d565b81016020851015620002c9578190505b620002e1620002d8856200016d565b83018262000272565b50505b505050565b600082821c905092915050565b60006200030960001984600802620002e9565b1980831691505092915050565b6000620003248383620002f6565b9150826002028217905092915050565b6200033f82620000ba565b67ffffffffffffffff8111156200035b576200035a620000c5565b5b62000367825462000123565b6200037482828562000299565b600060209050601f831160018114620003ac576000841562000397578287015190505b620003a3858262000316565b86555062000413565b601f198416620003bc8662000158565b60005b82811015620003e657848901518255600182019150602085019450602081019050620003bf565b8683101562000406578489015162000402601f891682620002f6565b8355505b6001600288020188555050505b505050505050565b6109f9806200042b6000396000f3fe60806040526004361061004a5760003560e01c8063046f7da21461004f57806317d7de7c146100665780633ccfd60b146100915780638456cb591461009b578063d0e30db0146100b2575b600080fd5b34801561005b57600080fd5b506100646100bc565b005b34801561007257600080fd5b5061007b6101bb565b604051610088919061064c565b60405180910390f35b61009961024d565b005b3480156100a757600080fd5b506100b0610416565b005b6100ba610513565b005b60008054906101000a900473ffffffffffffffffffffffffffffffffffffffff168073ffffffffffffffffffffffffffffffffffffffff163373ffffffffffffffffffffffffffffffffffffffff161461014b576040517f08c379a0000000000000000000000000000000000000000000000000000000008152600401610142906106ba565b60405180910390fd5b600060149054906101000a900460ff16801561019c576040517f08c379a000000000000000000000000000000000000000000000000000000000815260040161019390610726565b60405180910390fd5b6001600060146101000a81548160ff0219169083151502179055505050565b6060600180546101ca90610775565b80601f01602080910402602001604051908101604052809291908181526020018280546101f690610775565b80156102435780601f1061021857610100808354040283529160200191610243565b820191906000526020600020905b81548152906001019060200180831161022657829003601f168201915b5050505050905090565b600060149054906101000a900460ff16801561029e576040517f08c379a000000000000000000000000000000000000000000000000000000000815260040161029590610726565b60405180910390fd5b3480600260003373ffffffffffffffffffffffffffffffffffffffff1673ffffffffffffffffffffffffffffffffffffffff1681526020019081526020016000205411610320576040517f08c379a000000000000000000000000000000000000000000000000000000000815260040161031790610818565b60405180910390fd5b60003373ffffffffffffffffffffffffffffffffffffffff163460405161034690610869565b60006040518083038185875af1925050503d8060008114610383576040519150601f19603f3d011682016040523d82523d6000602084013e610388565b606091505b50509050806103cc576040517f08c379a00000000000000000000000000000000000000000000000000000000081526004016103c3906108ca565b60405180910390fd5b6000600260003373ffffffffffffffffffffffffffffffffffffffff1673ffffffffffffffffffffffffffffffffffffffff16815260200190815260200160002081905550505050565b60008054906101000a900473ffffffffffffffffffffffffffffffffffffffff168073ffffffffffffffffffffffffffffffffffffffff163373ffffffffffffffffffffffffffffffffffffffff16146104a5576040517f08c379a000000000000000000000000000000000000000000000000000000000815260040161049c906106ba565b60405180910390fd5b600060149054906101000a900460ff16806104f5576040517f08c379a00000000000000000000000000000000000000000000000000000000081526004016104ec90610936565b60405180910390fd5b60008060146101000a81548160ff0219169083151502179055505050565b600060149054906101000a900460ff1680610563576040517f08c379a000000000000000000000000000000000000000000000000000000000815260040161055a90610936565b60405180910390fd5b34600260003373ffffffffffffffffffffffffffffffffffffffff1673ffffffffffffffffffffffffffffffffffffffff16815260200190815260200160002060008282546105b2919061098f565b9250508190555050565b600081519050919050565b600082825260208201905092915050565b60005b838110156105f65780820151818401526020810190506105db565b60008484015250505050565b6000601f19601f8301169050919050565b600061061e826105bc565b61062881856105c7565b93506106388185602086016105d8565b61064181610602565b840191505092915050565b600060208201905081810360008301526106668184610613565b905092915050565b7f556e617574686f72697a65642061636365737321000000000000000000000000600082015250565b60006106a46014836105c7565b91506106af8261066e565b602082019050919050565b600060208201905081810360008301526106d381610697565b9050919050565b7f436f6e7472616374206973206f6e207061757365210000000000000000000000600082015250565b60006107106015836105c7565b915061071b826106da565b602082019050919050565b6000602082019050818103600083015261073f81610703565b9050919050565b7f4e487b7100000000000000000000000000000000000000000000000000000000600052602260045260246000fd5b6000600282049050600182168061078d57607f821691505b6020821081036107a05761079f610746565b5b50919050565b7f496e73756666696369656e742066756e647320666f722077697468647261776160008201527f6c21000000000000000000000000000000000000000000000000000000000000602082015250565b60006108026022836105c7565b915061080d826107a6565b604082019050919050565b60006020820190508181036000830152610831816107f5565b9050919050565b600081905092915050565b50565b6000610853600083610838565b915061085e82610843565b600082019050919050565b600061087482610846565b9150819050919050565b7f5769746864726177616c206661696c6564210000000000000000000000000000600082015250565b60006108b46012836105c7565b91506108bf8261087e565b602082019050919050565b600060208201905081810360008301526108e3816108a7565b9050919050565b7f436f6e747261637420697320696e20657865637574696f6e2100000000000000600082015250565b60006109206019836105c7565b915061092b826108ea565b602082019050919050565b6000602082019050818103600083015261094f81610913565b9050919050565b6000819050919050565b7f4e487b7100000000000000000000000000000000000000000000000000000000600052601160045260246000fd5b600061099a82610956565b91506109a583610956565b92508282019050808211156109bd576109bc610960565b5b9291505056fea2646970667358221220b1c1f033e6aefd0e5760ef141052032ec2b233c778b6de549f451028c8b03d3f64736f6c63430008110033",
  "immutableReferences": {},
  "source": "// SPDX-License-Identifier: MIT\npragma solidity >=0.4.22 <0.9.0;\n\ncontract EmergencyStop {\n\n  // declare state variables\n  address owner;\n  bool execute;\n  string name;\n  mapping(address => uint) balances;\n\n  constructor() {\n    owner = msg.sender;\n    execute = true;\n    name = \"Emergency Stop\";\n  }\n\n  // implement getter for instance name test\n  function getName() public view returns(string memory) {\n    return (name);\n  }\n\n  // implement std. access restriction\n  modifier onlyOwner(address account) {\n    require(msg.sender == account, \"Unauthorized access!\");\n    _;\n  }\n\n  // implement resume check\n  modifier onExecute(bool _execute) {\n    require(_execute, \"Contract is in execution!\");\n    _;\n  }\n\n  // implement pause check\n  modifier onPause(bool _execute) {\n    require(!_execute, \"Contract is on pause!\");\n    _;\n  }\n\n  // implement balance check\n  modifier balanceCheck(uint amount) {\n    require(balances[msg.sender] > amount, \"Insufficient funds for withdrawal!\");\n    _;\n  }\n\n  function pause() public onlyOwner(owner) onExecute(execute) {\n    execute = false;\n  }\n\n  function resume() public onlyOwner(owner) onPause(execute) {\n    execute = true;\n  }\n\n  // deposit ether\n  function deposit() public onExecute(execute) payable {\n    balances[msg.sender] += msg.value;\n  }\n\n  // withdraw ether\n  // TODO: add re-entrancy guard\n  function withdraw() public onPause(execute) balanceCheck(msg.value) payable {\n      (bool success, ) = msg.sender.call{value: msg.value}(\"\");\n      require(success, \"Withdrawal failed!\");\n      balances[msg.sender] = 0;\n  }\n\n}\n",
  "sourcePath": "C:\\Users\\duplid\\Documents\\ethereum-design-patterns\\contracts\\EmergencyStop.sol",
  "compiler": {
    "name": "solc",
    "version": "0.8.17+commit.8df45f5f.Emscripten.clang"
  },
  "schemaVersion": "3.4.10",
  "updatedAt": "2023-01-05T14:45:57.953Z",
  "networkType": "ethereum",
  "devdoc": {
    "kind": "dev",
    "methods": {},
    "version": 1
  },
  "userdoc": {
    "kind": "user",
    "methods": {},
    "version": 1
  }
}